{
	"contracts/BeggingContract.sol": {
		"BeggingContract": {
			"abi": [
				{
					"inputs": [],
					"stateMutability": "nonpayable",
					"type": "constructor"
				},
				{
					"anonymous": false,
					"inputs": [
						{
							"indexed": true,
							"internalType": "address",
							"name": "donater",
							"type": "address"
						},
						{
							"indexed": false,
							"internalType": "uint256",
							"name": "amount",
							"type": "uint256"
						}
					],
					"name": "Donated",
					"type": "event"
				},
				{
					"anonymous": false,
					"inputs": [
						{
							"indexed": true,
							"internalType": "address",
							"name": "owner",
							"type": "address"
						},
						{
							"indexed": false,
							"internalType": "uint256",
							"name": "amount",
							"type": "uint256"
						}
					],
					"name": "Withdrawn",
					"type": "event"
				},
				{
					"inputs": [],
					"name": "donate",
					"outputs": [],
					"stateMutability": "payable",
					"type": "function"
				},
				{
					"inputs": [
						{
							"internalType": "address",
							"name": "donater",
							"type": "address"
						}
					],
					"name": "getDonation",
					"outputs": [
						{
							"internalType": "uint256",
							"name": "",
							"type": "uint256"
						}
					],
					"stateMutability": "view",
					"type": "function"
				},
				{
					"inputs": [],
					"name": "owner",
					"outputs": [
						{
							"internalType": "address",
							"name": "",
							"type": "address"
						}
					],
					"stateMutability": "view",
					"type": "function"
				},
				{
					"inputs": [],
					"name": "withdraw",
					"outputs": [],
					"stateMutability": "nonpayable",
					"type": "function"
				}
			],
			"devdoc": {
				"kind": "dev",
				"methods": {},
				"version": 1
			},
			"evm": {
				"assembly": "    /* \"contracts/BeggingContract.sol\":58:1033  contract BeggingContract {... */\n  mstore(0x40, 0x80)\n    /* \"contracts/BeggingContract.sol\":297:345  constructor(){... */\n  callvalue\n  dup1\n  iszero\n  tag_1\n  jumpi\n  revert(0x00, 0x00)\ntag_1:\n  pop\n    /* \"contracts/BeggingContract.sol\":327:337  msg.sender */\n  caller\n    /* \"contracts/BeggingContract.sol\":321:326  owner */\n  0x00\n  0x00\n    /* \"contracts/BeggingContract.sol\":321:337  owner=msg.sender */\n  0x0100\n  exp\n  dup2\n  sload\n  dup2\n  0xffffffffffffffffffffffffffffffffffffffff\n  mul\n  not\n  and\n  swap1\n  dup4\n  0xffffffffffffffffffffffffffffffffffffffff\n  and\n  mul\n  or\n  swap1\n  sstore\n  pop\n    /* \"contracts/BeggingContract.sol\":58:1033  contract BeggingContract {... */\n  dataSize(sub_0)\n  dup1\n  dataOffset(sub_0)\n  0x00\n  codecopy\n  0x00\n  return\nstop\n\nsub_0: assembly {\n        /* \"contracts/BeggingContract.sol\":58:1033  contract BeggingContract {... */\n      mstore(0x40, 0x80)\n      jumpi(tag_1, lt(calldatasize, 0x04))\n      shr(0xe0, calldataload(0x00))\n      dup1\n      0x3ccfd60b\n      eq\n      tag_2\n      jumpi\n      dup1\n      0x410a1d32\n      eq\n      tag_3\n      jumpi\n      dup1\n      0x8da5cb5b\n      eq\n      tag_4\n      jumpi\n      dup1\n      0xed88c68e\n      eq\n      tag_5\n      jumpi\n    tag_1:\n      revert(0x00, 0x00)\n        /* \"contracts/BeggingContract.sol\":663:904  function withdraw() public onlyOwner {... */\n    tag_2:\n      callvalue\n      dup1\n      iszero\n      tag_6\n      jumpi\n      revert(0x00, 0x00)\n    tag_6:\n      pop\n      tag_7\n      tag_8\n      jump\t// in\n    tag_7:\n      stop\n        /* \"contracts/BeggingContract.sol\":912:1028  function getDonation (address donater) public view returns (uint256){... */\n    tag_3:\n      callvalue\n      dup1\n      iszero\n      tag_9\n      jumpi\n      revert(0x00, 0x00)\n    tag_9:\n      pop\n      tag_10\n      0x04\n      dup1\n      calldatasize\n      sub\n      dup2\n      add\n      swap1\n      tag_11\n      swap2\n      swap1\n      tag_12\n      jump\t// in\n    tag_11:\n      tag_13\n      jump\t// in\n    tag_10:\n      mload(0x40)\n      tag_14\n      swap2\n      swap1\n      tag_15\n      jump\t// in\n    tag_14:\n      mload(0x40)\n      dup1\n      swap2\n      sub\n      swap1\n      return\n        /* \"contracts/BeggingContract.sol\":90:110  address public owner */\n    tag_4:\n      callvalue\n      dup1\n      iszero\n      tag_16\n      jumpi\n      revert(0x00, 0x00)\n    tag_16:\n      pop\n      tag_17\n      tag_18\n      jump\t// in\n    tag_17:\n      mload(0x40)\n      tag_19\n      swap2\n      swap1\n      tag_20\n      jump\t// in\n    tag_19:\n      mload(0x40)\n      dup1\n      swap2\n      sub\n      swap1\n      return\n        /* \"contracts/BeggingContract.sol\":450:655  function donate () external payable{... */\n    tag_5:\n      tag_21\n      tag_22\n      jump\t// in\n    tag_21:\n      stop\n        /* \"contracts/BeggingContract.sol\":663:904  function withdraw() public onlyOwner {... */\n    tag_8:\n        /* \"contracts/BeggingContract.sol\":404:409  owner */\n      0x00\n      0x00\n      swap1\n      sload\n      swap1\n      0x0100\n      exp\n      swap1\n      div\n      0xffffffffffffffffffffffffffffffffffffffff\n      and\n        /* \"contracts/BeggingContract.sol\":392:409  msg.sender==owner */\n      0xffffffffffffffffffffffffffffffffffffffff\n      and\n        /* \"contracts/BeggingContract.sol\":392:402  msg.sender */\n      caller\n        /* \"contracts/BeggingContract.sol\":392:409  msg.sender==owner */\n      0xffffffffffffffffffffffffffffffffffffffff\n      and\n      eq\n        /* \"contracts/BeggingContract.sol\":384:422  require(msg.sender==owner,\"not owner\") */\n      tag_24\n      jumpi\n      mload(0x40)\n      0x08c379a000000000000000000000000000000000000000000000000000000000\n      dup2\n      mstore\n      0x04\n      add\n      tag_25\n      swap1\n      tag_26\n      jump\t// in\n    tag_25:\n      mload(0x40)\n      dup1\n      swap2\n      sub\n      swap1\n      revert\n    tag_24:\n        /* \"contracts/BeggingContract.sol\":711:726  uint256 balance */\n      0x00\n        /* \"contracts/BeggingContract.sol\":729:750  address(this).balance */\n      selfbalance\n        /* \"contracts/BeggingContract.sol\":711:750  uint256 balance = address(this).balance */\n      swap1\n      pop\n        /* \"contracts/BeggingContract.sol\":779:780  0 */\n      0x00\n        /* \"contracts/BeggingContract.sol\":769:776  balance */\n      dup2\n        /* \"contracts/BeggingContract.sol\":769:780  balance > 0 */\n      gt\n        /* \"contracts/BeggingContract.sol\":761:812  require(balance > 0, \"no eth need to be withdrawn\") */\n      tag_28\n      jumpi\n      mload(0x40)\n      0x08c379a000000000000000000000000000000000000000000000000000000000\n      dup2\n      mstore\n      0x04\n      add\n      tag_29\n      swap1\n      tag_30\n      jump\t// in\n    tag_29:\n      mload(0x40)\n      dup1\n      swap2\n      sub\n      swap1\n      revert\n    tag_28:\n        /* \"contracts/BeggingContract.sol\":831:836  owner */\n      0x00\n      0x00\n      swap1\n      sload\n      swap1\n      0x0100\n      exp\n      swap1\n      div\n      0xffffffffffffffffffffffffffffffffffffffff\n      and\n        /* \"contracts/BeggingContract.sol\":823:846  payable(owner).transfer */\n      0xffffffffffffffffffffffffffffffffffffffff\n      and\n        /* \"contracts/BeggingContract.sol\":823:855  payable(owner).transfer(balance) */\n      0x08fc\n        /* \"contracts/BeggingContract.sol\":847:854  balance */\n      dup3\n        /* \"contracts/BeggingContract.sol\":823:855  payable(owner).transfer(balance) */\n      swap1\n      dup2\n      iszero\n      mul\n      swap1\n      mload(0x40)\n      0x00\n      mload(0x40)\n      dup1\n      dup4\n      sub\n      dup2\n      dup6\n      dup9\n      dup9\n      call\n      swap4\n      pop\n      pop\n      pop\n      pop\n      iszero\n      dup1\n      iszero\n      tag_32\n      jumpi\n      returndatacopy(0x00, 0x00, returndatasize)\n      revert(0x00, returndatasize)\n    tag_32:\n      pop\n        /* \"contracts/BeggingContract.sol\":881:886  owner */\n      0x00\n      0x00\n      swap1\n      sload\n      swap1\n      0x0100\n      exp\n      swap1\n      div\n      0xffffffffffffffffffffffffffffffffffffffff\n      and\n        /* \"contracts/BeggingContract.sol\":871:896  Withdrawn(owner, balance) */\n      0xffffffffffffffffffffffffffffffffffffffff\n      and\n      0x7084f5476618d8e60b11ef0d7d3f06914655adb8793e28ff7f018d4c76d505d5\n        /* \"contracts/BeggingContract.sol\":888:895  balance */\n      dup3\n        /* \"contracts/BeggingContract.sol\":871:896  Withdrawn(owner, balance) */\n      mload(0x40)\n      tag_33\n      swap2\n      swap1\n      tag_15\n      jump\t// in\n    tag_33:\n      mload(0x40)\n      dup1\n      swap2\n      sub\n      swap1\n      log2\n        /* \"contracts/BeggingContract.sol\":700:904  {... */\n      pop\n        /* \"contracts/BeggingContract.sol\":663:904  function withdraw() public onlyOwner {... */\n      jump\t// out\n        /* \"contracts/BeggingContract.sol\":912:1028  function getDonation (address donater) public view returns (uint256){... */\n    tag_13:\n        /* \"contracts/BeggingContract.sol\":972:979  uint256 */\n      0x00\n        /* \"contracts/BeggingContract.sol\":998:1011  amountMapping */\n      0x01\n        /* \"contracts/BeggingContract.sol\":998:1020  amountMapping[donater] */\n      0x00\n        /* \"contracts/BeggingContract.sol\":1012:1019  donater */\n      dup4\n        /* \"contracts/BeggingContract.sol\":998:1020  amountMapping[donater] */\n      0xffffffffffffffffffffffffffffffffffffffff\n      and\n      0xffffffffffffffffffffffffffffffffffffffff\n      and\n      dup2\n      mstore\n      0x20\n      add\n      swap1\n      dup2\n      mstore\n      0x20\n      add\n      0x00\n      keccak256\n      sload\n        /* \"contracts/BeggingContract.sol\":991:1020  return amountMapping[donater] */\n      swap1\n      pop\n        /* \"contracts/BeggingContract.sol\":912:1028  function getDonation (address donater) public view returns (uint256){... */\n      swap2\n      swap1\n      pop\n      jump\t// out\n        /* \"contracts/BeggingContract.sol\":90:110  address public owner */\n    tag_18:\n      0x00\n      0x00\n      swap1\n      sload\n      swap1\n      0x0100\n      exp\n      swap1\n      div\n      0xffffffffffffffffffffffffffffffffffffffff\n      and\n      dup2\n      jump\t// out\n        /* \"contracts/BeggingContract.sol\":450:655  function donate () external payable{... */\n    tag_22:\n        /* \"contracts/BeggingContract.sol\":514:515  0 */\n      0x00\n        /* \"contracts/BeggingContract.sol\":504:513  msg.value */\n      callvalue\n        /* \"contracts/BeggingContract.sol\":504:515  msg.value>0 */\n      gt\n        /* \"contracts/BeggingContract.sol\":496:553  require(msg.value>0,\"there must be something be donated\") */\n      tag_36\n      jumpi\n      mload(0x40)\n      0x08c379a000000000000000000000000000000000000000000000000000000000\n      dup2\n      mstore\n      0x04\n      add\n      tag_37\n      swap1\n      tag_38\n      jump\t// in\n    tag_37:\n      mload(0x40)\n      dup1\n      swap2\n      sub\n      swap1\n      revert\n    tag_36:\n        /* \"contracts/BeggingContract.sol\":592:601  msg.value */\n      callvalue\n        /* \"contracts/BeggingContract.sol\":564:577  amountMapping */\n      0x01\n        /* \"contracts/BeggingContract.sol\":564:589  amountMapping[msg.sender] */\n      0x00\n        /* \"contracts/BeggingContract.sol\":578:588  msg.sender */\n      caller\n        /* \"contracts/BeggingContract.sol\":564:589  amountMapping[msg.sender] */\n      0xffffffffffffffffffffffffffffffffffffffff\n      and\n      0xffffffffffffffffffffffffffffffffffffffff\n      and\n      dup2\n      mstore\n      0x20\n      add\n      swap1\n      dup2\n      mstore\n      0x20\n      add\n      0x00\n      keccak256\n      0x00\n        /* \"contracts/BeggingContract.sol\":564:601  amountMapping[msg.sender] +=msg.value */\n      dup3\n      dup3\n      sload\n      tag_39\n      swap2\n      swap1\n      tag_40\n      jump\t// in\n    tag_39:\n      swap3\n      pop\n      pop\n      dup2\n      swap1\n      sstore\n      pop\n        /* \"contracts/BeggingContract.sol\":625:635  msg.sender */\n      caller\n        /* \"contracts/BeggingContract.sol\":617:647  Donated(msg.sender, msg.value) */\n      0xffffffffffffffffffffffffffffffffffffffff\n      and\n      0x2a01595cddf097c90216094025db714da3f4e5bd8877b56ba86a24ecead8e543\n        /* \"contracts/BeggingContract.sol\":637:646  msg.value */\n      callvalue\n        /* \"contracts/BeggingContract.sol\":617:647  Donated(msg.sender, msg.value) */\n      mload(0x40)\n      tag_41\n      swap2\n      swap1\n      tag_15\n      jump\t// in\n    tag_41:\n      mload(0x40)\n      dup1\n      swap2\n      sub\n      swap1\n      log2\n        /* \"contracts/BeggingContract.sol\":450:655  function donate () external payable{... */\n      jump\t// out\n        /* \"#utility.yul\":88:205   */\n    tag_43:\n        /* \"#utility.yul\":197:198   */\n      0x00\n        /* \"#utility.yul\":194:195   */\n      0x00\n        /* \"#utility.yul\":187:199   */\n      revert\n        /* \"#utility.yul\":334:460   */\n    tag_45:\n        /* \"#utility.yul\":371:378   */\n      0x00\n        /* \"#utility.yul\":411:453   */\n      0xffffffffffffffffffffffffffffffffffffffff\n        /* \"#utility.yul\":404:409   */\n      dup3\n        /* \"#utility.yul\":400:454   */\n      and\n        /* \"#utility.yul\":389:454   */\n      swap1\n      pop\n        /* \"#utility.yul\":334:460   */\n      swap2\n      swap1\n      pop\n      jump\t// out\n        /* \"#utility.yul\":466:562   */\n    tag_46:\n        /* \"#utility.yul\":503:510   */\n      0x00\n        /* \"#utility.yul\":532:556   */\n      tag_66\n        /* \"#utility.yul\":550:555   */\n      dup3\n        /* \"#utility.yul\":532:556   */\n      tag_45\n      jump\t// in\n    tag_66:\n        /* \"#utility.yul\":521:556   */\n      swap1\n      pop\n        /* \"#utility.yul\":466:562   */\n      swap2\n      swap1\n      pop\n      jump\t// out\n        /* \"#utility.yul\":568:690   */\n    tag_47:\n        /* \"#utility.yul\":641:665   */\n      tag_68\n        /* \"#utility.yul\":659:664   */\n      dup2\n        /* \"#utility.yul\":641:665   */\n      tag_46\n      jump\t// in\n    tag_68:\n        /* \"#utility.yul\":634:639   */\n      dup2\n        /* \"#utility.yul\":631:666   */\n      eq\n        /* \"#utility.yul\":621:684   */\n      tag_69\n      jumpi\n        /* \"#utility.yul\":680:681   */\n      0x00\n        /* \"#utility.yul\":677:678   */\n      0x00\n        /* \"#utility.yul\":670:682   */\n      revert\n        /* \"#utility.yul\":621:684   */\n    tag_69:\n        /* \"#utility.yul\":568:690   */\n      pop\n      jump\t// out\n        /* \"#utility.yul\":696:835   */\n    tag_48:\n        /* \"#utility.yul\":742:747   */\n      0x00\n        /* \"#utility.yul\":780:786   */\n      dup2\n        /* \"#utility.yul\":767:787   */\n      calldataload\n        /* \"#utility.yul\":758:787   */\n      swap1\n      pop\n        /* \"#utility.yul\":796:829   */\n      tag_71\n        /* \"#utility.yul\":823:828   */\n      dup2\n        /* \"#utility.yul\":796:829   */\n      tag_47\n      jump\t// in\n    tag_71:\n        /* \"#utility.yul\":696:835   */\n      swap3\n      swap2\n      pop\n      pop\n      jump\t// out\n        /* \"#utility.yul\":841:1170   */\n    tag_12:\n        /* \"#utility.yul\":900:906   */\n      0x00\n        /* \"#utility.yul\":949:951   */\n      0x20\n        /* \"#utility.yul\":937:946   */\n      dup3\n        /* \"#utility.yul\":928:935   */\n      dup5\n        /* \"#utility.yul\":924:947   */\n      sub\n        /* \"#utility.yul\":920:952   */\n      slt\n        /* \"#utility.yul\":917:1036   */\n      iszero\n      tag_73\n      jumpi\n        /* \"#utility.yul\":955:1034   */\n      tag_74\n      tag_43\n      jump\t// in\n    tag_74:\n        /* \"#utility.yul\":917:1036   */\n    tag_73:\n        /* \"#utility.yul\":1075:1076   */\n      0x00\n        /* \"#utility.yul\":1100:1153   */\n      tag_75\n        /* \"#utility.yul\":1145:1152   */\n      dup5\n        /* \"#utility.yul\":1136:1142   */\n      dup3\n        /* \"#utility.yul\":1125:1134   */\n      dup6\n        /* \"#utility.yul\":1121:1143   */\n      add\n        /* \"#utility.yul\":1100:1153   */\n      tag_48\n      jump\t// in\n    tag_75:\n        /* \"#utility.yul\":1090:1153   */\n      swap2\n      pop\n        /* \"#utility.yul\":1046:1163   */\n      pop\n        /* \"#utility.yul\":841:1170   */\n      swap3\n      swap2\n      pop\n      pop\n      jump\t// out\n        /* \"#utility.yul\":1176:1253   */\n    tag_49:\n        /* \"#utility.yul\":1213:1220   */\n      0x00\n        /* \"#utility.yul\":1242:1247   */\n      dup2\n        /* \"#utility.yul\":1231:1247   */\n      swap1\n      pop\n        /* \"#utility.yul\":1176:1253   */\n      swap2\n      swap1\n      pop\n      jump\t// out\n        /* \"#utility.yul\":1259:1377   */\n    tag_50:\n        /* \"#utility.yul\":1346:1370   */\n      tag_78\n        /* \"#utility.yul\":1364:1369   */\n      dup2\n        /* \"#utility.yul\":1346:1370   */\n      tag_49\n      jump\t// in\n    tag_78:\n        /* \"#utility.yul\":1341:1344   */\n      dup3\n        /* \"#utility.yul\":1334:1371   */\n      mstore\n        /* \"#utility.yul\":1259:1377   */\n      pop\n      pop\n      jump\t// out\n        /* \"#utility.yul\":1383:1605   */\n    tag_15:\n        /* \"#utility.yul\":1476:1480   */\n      0x00\n        /* \"#utility.yul\":1514:1516   */\n      0x20\n        /* \"#utility.yul\":1503:1512   */\n      dup3\n        /* \"#utility.yul\":1499:1517   */\n      add\n        /* \"#utility.yul\":1491:1517   */\n      swap1\n      pop\n        /* \"#utility.yul\":1527:1598   */\n      tag_80\n        /* \"#utility.yul\":1595:1596   */\n      0x00\n        /* \"#utility.yul\":1584:1593   */\n      dup4\n        /* \"#utility.yul\":1580:1597   */\n      add\n        /* \"#utility.yul\":1571:1577   */\n      dup5\n        /* \"#utility.yul\":1527:1598   */\n      tag_50\n      jump\t// in\n    tag_80:\n        /* \"#utility.yul\":1383:1605   */\n      swap3\n      swap2\n      pop\n      pop\n      jump\t// out\n        /* \"#utility.yul\":1611:1729   */\n    tag_51:\n        /* \"#utility.yul\":1698:1722   */\n      tag_82\n        /* \"#utility.yul\":1716:1721   */\n      dup2\n        /* \"#utility.yul\":1698:1722   */\n      tag_46\n      jump\t// in\n    tag_82:\n        /* \"#utility.yul\":1693:1696   */\n      dup3\n        /* \"#utility.yul\":1686:1723   */\n      mstore\n        /* \"#utility.yul\":1611:1729   */\n      pop\n      pop\n      jump\t// out\n        /* \"#utility.yul\":1735:1957   */\n    tag_20:\n        /* \"#utility.yul\":1828:1832   */\n      0x00\n        /* \"#utility.yul\":1866:1868   */\n      0x20\n        /* \"#utility.yul\":1855:1864   */\n      dup3\n        /* \"#utility.yul\":1851:1869   */\n      add\n        /* \"#utility.yul\":1843:1869   */\n      swap1\n      pop\n        /* \"#utility.yul\":1879:1950   */\n      tag_84\n        /* \"#utility.yul\":1947:1948   */\n      0x00\n        /* \"#utility.yul\":1936:1945   */\n      dup4\n        /* \"#utility.yul\":1932:1949   */\n      add\n        /* \"#utility.yul\":1923:1929   */\n      dup5\n        /* \"#utility.yul\":1879:1950   */\n      tag_51\n      jump\t// in\n    tag_84:\n        /* \"#utility.yul\":1735:1957   */\n      swap3\n      swap2\n      pop\n      pop\n      jump\t// out\n        /* \"#utility.yul\":1963:2132   */\n    tag_52:\n        /* \"#utility.yul\":2047:2058   */\n      0x00\n        /* \"#utility.yul\":2081:2087   */\n      dup3\n        /* \"#utility.yul\":2076:2079   */\n      dup3\n        /* \"#utility.yul\":2069:2088   */\n      mstore\n        /* \"#utility.yul\":2121:2125   */\n      0x20\n        /* \"#utility.yul\":2116:2119   */\n      dup3\n        /* \"#utility.yul\":2112:2126   */\n      add\n        /* \"#utility.yul\":2097:2126   */\n      swap1\n      pop\n        /* \"#utility.yul\":1963:2132   */\n      swap3\n      swap2\n      pop\n      pop\n      jump\t// out\n        /* \"#utility.yul\":2138:2297   */\n    tag_53:\n        /* \"#utility.yul\":2278:2289   */\n      0x6e6f74206f776e65720000000000000000000000000000000000000000000000\n        /* \"#utility.yul\":2274:2275   */\n      0x00\n        /* \"#utility.yul\":2266:2272   */\n      dup3\n        /* \"#utility.yul\":2262:2276   */\n      add\n        /* \"#utility.yul\":2255:2290   */\n      mstore\n        /* \"#utility.yul\":2138:2297   */\n      pop\n      jump\t// out\n        /* \"#utility.yul\":2303:2668   */\n    tag_54:\n        /* \"#utility.yul\":2445:2448   */\n      0x00\n        /* \"#utility.yul\":2466:2532   */\n      tag_88\n        /* \"#utility.yul\":2530:2531   */\n      0x09\n        /* \"#utility.yul\":2525:2528   */\n      dup4\n        /* \"#utility.yul\":2466:2532   */\n      tag_52\n      jump\t// in\n    tag_88:\n        /* \"#utility.yul\":2459:2532   */\n      swap2\n      pop\n        /* \"#utility.yul\":2541:2634   */\n      tag_89\n        /* \"#utility.yul\":2630:2633   */\n      dup3\n        /* \"#utility.yul\":2541:2634   */\n      tag_53\n      jump\t// in\n    tag_89:\n        /* \"#utility.yul\":2659:2661   */\n      0x20\n        /* \"#utility.yul\":2654:2657   */\n      dup3\n        /* \"#utility.yul\":2650:2662   */\n      add\n        /* \"#utility.yul\":2643:2662   */\n      swap1\n      pop\n        /* \"#utility.yul\":2303:2668   */\n      swap2\n      swap1\n      pop\n      jump\t// out\n        /* \"#utility.yul\":2674:3093   */\n    tag_26:\n        /* \"#utility.yul\":2840:2844   */\n      0x00\n        /* \"#utility.yul\":2878:2880   */\n      0x20\n        /* \"#utility.yul\":2867:2876   */\n      dup3\n        /* \"#utility.yul\":2863:2881   */\n      add\n        /* \"#utility.yul\":2855:2881   */\n      swap1\n      pop\n        /* \"#utility.yul\":2927:2936   */\n      dup2\n        /* \"#utility.yul\":2921:2925   */\n      dup2\n        /* \"#utility.yul\":2917:2937   */\n      sub\n        /* \"#utility.yul\":2913:2914   */\n      0x00\n        /* \"#utility.yul\":2902:2911   */\n      dup4\n        /* \"#utility.yul\":2898:2915   */\n      add\n        /* \"#utility.yul\":2891:2938   */\n      mstore\n        /* \"#utility.yul\":2955:3086   */\n      tag_91\n        /* \"#utility.yul\":3081:3085   */\n      dup2\n        /* \"#utility.yul\":2955:3086   */\n      tag_54\n      jump\t// in\n    tag_91:\n        /* \"#utility.yul\":2947:3086   */\n      swap1\n      pop\n        /* \"#utility.yul\":2674:3093   */\n      swap2\n      swap1\n      pop\n      jump\t// out\n        /* \"#utility.yul\":3099:3276   */\n    tag_55:\n        /* \"#utility.yul\":3239:3268   */\n      0x6e6f20657468206e65656420746f2062652077697468647261776e0000000000\n        /* \"#utility.yul\":3235:3236   */\n      0x00\n        /* \"#utility.yul\":3227:3233   */\n      dup3\n        /* \"#utility.yul\":3223:3237   */\n      add\n        /* \"#utility.yul\":3216:3269   */\n      mstore\n        /* \"#utility.yul\":3099:3276   */\n      pop\n      jump\t// out\n        /* \"#utility.yul\":3282:3648   */\n    tag_56:\n        /* \"#utility.yul\":3424:3427   */\n      0x00\n        /* \"#utility.yul\":3445:3512   */\n      tag_94\n        /* \"#utility.yul\":3509:3511   */\n      0x1b\n        /* \"#utility.yul\":3504:3507   */\n      dup4\n        /* \"#utility.yul\":3445:3512   */\n      tag_52\n      jump\t// in\n    tag_94:\n        /* \"#utility.yul\":3438:3512   */\n      swap2\n      pop\n        /* \"#utility.yul\":3521:3614   */\n      tag_95\n        /* \"#utility.yul\":3610:3613   */\n      dup3\n        /* \"#utility.yul\":3521:3614   */\n      tag_55\n      jump\t// in\n    tag_95:\n        /* \"#utility.yul\":3639:3641   */\n      0x20\n        /* \"#utility.yul\":3634:3637   */\n      dup3\n        /* \"#utility.yul\":3630:3642   */\n      add\n        /* \"#utility.yul\":3623:3642   */\n      swap1\n      pop\n        /* \"#utility.yul\":3282:3648   */\n      swap2\n      swap1\n      pop\n      jump\t// out\n        /* \"#utility.yul\":3654:4073   */\n    tag_30:\n        /* \"#utility.yul\":3820:3824   */\n      0x00\n        /* \"#utility.yul\":3858:3860   */\n      0x20\n        /* \"#utility.yul\":3847:3856   */\n      dup3\n        /* \"#utility.yul\":3843:3861   */\n      add\n        /* \"#utility.yul\":3835:3861   */\n      swap1\n      pop\n        /* \"#utility.yul\":3907:3916   */\n      dup2\n        /* \"#utility.yul\":3901:3905   */\n      dup2\n        /* \"#utility.yul\":3897:3917   */\n      sub\n        /* \"#utility.yul\":3893:3894   */\n      0x00\n        /* \"#utility.yul\":3882:3891   */\n      dup4\n        /* \"#utility.yul\":3878:3895   */\n      add\n        /* \"#utility.yul\":3871:3918   */\n      mstore\n        /* \"#utility.yul\":3935:4066   */\n      tag_97\n        /* \"#utility.yul\":4061:4065   */\n      dup2\n        /* \"#utility.yul\":3935:4066   */\n      tag_56\n      jump\t// in\n    tag_97:\n        /* \"#utility.yul\":3927:4066   */\n      swap1\n      pop\n        /* \"#utility.yul\":3654:4073   */\n      swap2\n      swap1\n      pop\n      jump\t// out\n        /* \"#utility.yul\":4079:4300   */\n    tag_57:\n        /* \"#utility.yul\":4219:4253   */\n      0x7468657265206d75737420626520736f6d657468696e6720626520646f6e6174\n        /* \"#utility.yul\":4215:4216   */\n      0x00\n        /* \"#utility.yul\":4207:4213   */\n      dup3\n        /* \"#utility.yul\":4203:4217   */\n      add\n        /* \"#utility.yul\":4196:4254   */\n      mstore\n        /* \"#utility.yul\":4288:4292   */\n      0x6564000000000000000000000000000000000000000000000000000000000000\n        /* \"#utility.yul\":4283:4285   */\n      0x20\n        /* \"#utility.yul\":4275:4281   */\n      dup3\n        /* \"#utility.yul\":4271:4286   */\n      add\n        /* \"#utility.yul\":4264:4293   */\n      mstore\n        /* \"#utility.yul\":4079:4300   */\n      pop\n      jump\t// out\n        /* \"#utility.yul\":4306:4672   */\n    tag_58:\n        /* \"#utility.yul\":4448:4451   */\n      0x00\n        /* \"#utility.yul\":4469:4536   */\n      tag_100\n        /* \"#utility.yul\":4533:4535   */\n      0x22\n        /* \"#utility.yul\":4528:4531   */\n      dup4\n        /* \"#utility.yul\":4469:4536   */\n      tag_52\n      jump\t// in\n    tag_100:\n        /* \"#utility.yul\":4462:4536   */\n      swap2\n      pop\n        /* \"#utility.yul\":4545:4638   */\n      tag_101\n        /* \"#utility.yul\":4634:4637   */\n      dup3\n        /* \"#utility.yul\":4545:4638   */\n      tag_57\n      jump\t// in\n    tag_101:\n        /* \"#utility.yul\":4663:4665   */\n      0x40\n        /* \"#utility.yul\":4658:4661   */\n      dup3\n        /* \"#utility.yul\":4654:4666   */\n      add\n        /* \"#utility.yul\":4647:4666   */\n      swap1\n      pop\n        /* \"#utility.yul\":4306:4672   */\n      swap2\n      swap1\n      pop\n      jump\t// out\n        /* \"#utility.yul\":4678:5097   */\n    tag_38:\n        /* \"#utility.yul\":4844:4848   */\n      0x00\n        /* \"#utility.yul\":4882:4884   */\n      0x20\n        /* \"#utility.yul\":4871:4880   */\n      dup3\n        /* \"#utility.yul\":4867:4885   */\n      add\n        /* \"#utility.yul\":4859:4885   */\n      swap1\n      pop\n        /* \"#utility.yul\":4931:4940   */\n      dup2\n        /* \"#utility.yul\":4925:4929   */\n      dup2\n        /* \"#utility.yul\":4921:4941   */\n      sub\n        /* \"#utility.yul\":4917:4918   */\n      0x00\n        /* \"#utility.yul\":4906:4915   */\n      dup4\n        /* \"#utility.yul\":4902:4919   */\n      add\n        /* \"#utility.yul\":4895:4942   */\n      mstore\n        /* \"#utility.yul\":4959:5090   */\n      tag_103\n        /* \"#utility.yul\":5085:5089   */\n      dup2\n        /* \"#utility.yul\":4959:5090   */\n      tag_58\n      jump\t// in\n    tag_103:\n        /* \"#utility.yul\":4951:5090   */\n      swap1\n      pop\n        /* \"#utility.yul\":4678:5097   */\n      swap2\n      swap1\n      pop\n      jump\t// out\n        /* \"#utility.yul\":5103:5283   */\n    tag_59:\n        /* \"#utility.yul\":5151:5228   */\n      0x4e487b7100000000000000000000000000000000000000000000000000000000\n        /* \"#utility.yul\":5148:5149   */\n      0x00\n        /* \"#utility.yul\":5141:5229   */\n      mstore\n        /* \"#utility.yul\":5248:5252   */\n      0x11\n        /* \"#utility.yul\":5245:5246   */\n      0x04\n        /* \"#utility.yul\":5238:5253   */\n      mstore\n        /* \"#utility.yul\":5272:5276   */\n      0x24\n        /* \"#utility.yul\":5269:5270   */\n      0x00\n        /* \"#utility.yul\":5262:5277   */\n      revert\n        /* \"#utility.yul\":5289:5480   */\n    tag_40:\n        /* \"#utility.yul\":5329:5332   */\n      0x00\n        /* \"#utility.yul\":5348:5368   */\n      tag_106\n        /* \"#utility.yul\":5366:5367   */\n      dup3\n        /* \"#utility.yul\":5348:5368   */\n      tag_49\n      jump\t// in\n    tag_106:\n        /* \"#utility.yul\":5343:5368   */\n      swap2\n      pop\n        /* \"#utility.yul\":5382:5402   */\n      tag_107\n        /* \"#utility.yul\":5400:5401   */\n      dup4\n        /* \"#utility.yul\":5382:5402   */\n      tag_49\n      jump\t// in\n    tag_107:\n        /* \"#utility.yul\":5377:5402   */\n      swap3\n      pop\n        /* \"#utility.yul\":5425:5426   */\n      dup3\n        /* \"#utility.yul\":5422:5423   */\n      dup3\n        /* \"#utility.yul\":5418:5427   */\n      add\n        /* \"#utility.yul\":5411:5427   */\n      swap1\n      pop\n        /* \"#utility.yul\":5446:5449   */\n      dup1\n        /* \"#utility.yul\":5443:5444   */\n      dup3\n        /* \"#utility.yul\":5440:5450   */\n      gt\n        /* \"#utility.yul\":5437:5473   */\n      iszero\n      tag_108\n      jumpi\n        /* \"#utility.yul\":5453:5471   */\n      tag_109\n      tag_59\n      jump\t// in\n    tag_109:\n        /* \"#utility.yul\":5437:5473   */\n    tag_108:\n        /* \"#utility.yul\":5289:5480   */\n      swap3\n      swap2\n      pop\n      pop\n      jump\t// out\n\n    auxdata: 0xa26469706673582212201f7cca9782c1715b88c6a50a7d745316e2a3368a229a086a69f79e6000e23f4264736f6c634300081e0033\n}\n",
				"bytecode": {
					"linkReferences": {},
					"object": "6080604052348015600e575f5ffd5b50335f5f6101000a81548173ffffffffffffffffffffffffffffffffffffffff021916908373ffffffffffffffffffffffffffffffffffffffff1602179055506106a68061005b5f395ff3fe60806040526004361061003e575f3560e01c80633ccfd60b14610042578063410a1d32146100585780638da5cb5b14610094578063ed88c68e146100be575b5f5ffd5b34801561004d575f5ffd5b506100566100c8565b005b348015610063575f5ffd5b5061007e6004803603810190610079919061041e565b610271565b60405161008b9190610461565b60405180910390f35b34801561009f575f5ffd5b506100a86102b7565b6040516100b59190610489565b60405180910390f35b6100c66102db565b005b5f5f9054906101000a900473ffffffffffffffffffffffffffffffffffffffff1673ffffffffffffffffffffffffffffffffffffffff163373ffffffffffffffffffffffffffffffffffffffff1614610156576040517f08c379a000000000000000000000000000000000000000000000000000000000815260040161014d906104fc565b60405180910390fd5b5f4790505f811161019c576040517f08c379a000000000000000000000000000000000000000000000000000000000815260040161019390610564565b60405180910390fd5b5f5f9054906101000a900473ffffffffffffffffffffffffffffffffffffffff1673ffffffffffffffffffffffffffffffffffffffff166108fc8290811502906040515f60405180830381858888f193505050501580156101ff573d5f5f3e3d5ffd5b505f5f9054906101000a900473ffffffffffffffffffffffffffffffffffffffff1673ffffffffffffffffffffffffffffffffffffffff167f7084f5476618d8e60b11ef0d7d3f06914655adb8793e28ff7f018d4c76d505d5826040516102669190610461565b60405180910390a250565b5f60015f8373ffffffffffffffffffffffffffffffffffffffff1673ffffffffffffffffffffffffffffffffffffffff1681526020019081526020015f20549050919050565b5f5f9054906101000a900473ffffffffffffffffffffffffffffffffffffffff1681565b5f341161031d576040517f08c379a0000000000000000000000000000000000000000000000000000000008152600401610314906105f2565b60405180910390fd5b3460015f3373ffffffffffffffffffffffffffffffffffffffff1673ffffffffffffffffffffffffffffffffffffffff1681526020019081526020015f205f828254610369919061063d565b925050819055503373ffffffffffffffffffffffffffffffffffffffff167f2a01595cddf097c90216094025db714da3f4e5bd8877b56ba86a24ecead8e543346040516103b69190610461565b60405180910390a2565b5f5ffd5b5f73ffffffffffffffffffffffffffffffffffffffff82169050919050565b5f6103ed826103c4565b9050919050565b6103fd816103e3565b8114610407575f5ffd5b50565b5f81359050610418816103f4565b92915050565b5f60208284031215610433576104326103c0565b5b5f6104408482850161040a565b91505092915050565b5f819050919050565b61045b81610449565b82525050565b5f6020820190506104745f830184610452565b92915050565b610483816103e3565b82525050565b5f60208201905061049c5f83018461047a565b92915050565b5f82825260208201905092915050565b7f6e6f74206f776e657200000000000000000000000000000000000000000000005f82015250565b5f6104e66009836104a2565b91506104f1826104b2565b602082019050919050565b5f6020820190508181035f830152610513816104da565b9050919050565b7f6e6f20657468206e65656420746f2062652077697468647261776e00000000005f82015250565b5f61054e601b836104a2565b91506105598261051a565b602082019050919050565b5f6020820190508181035f83015261057b81610542565b9050919050565b7f7468657265206d75737420626520736f6d657468696e6720626520646f6e61745f8201527f6564000000000000000000000000000000000000000000000000000000000000602082015250565b5f6105dc6022836104a2565b91506105e782610582565b604082019050919050565b5f6020820190508181035f830152610609816105d0565b9050919050565b7f4e487b71000000000000000000000000000000000000000000000000000000005f52601160045260245ffd5b5f61064782610449565b915061065283610449565b925082820190508082111561066a57610669610610565b5b9291505056fea26469706673582212201f7cca9782c1715b88c6a50a7d745316e2a3368a229a086a69f79e6000e23f4264736f6c634300081e0033",
					"opcodes": "PUSH1 0x80 PUSH1 0x40 MSTORE CALLVALUE DUP1 ISZERO PUSH1 0xE JUMPI PUSH0 PUSH0 REVERT JUMPDEST POP CALLER PUSH0 PUSH0 PUSH2 0x100 EXP DUP2 SLOAD DUP2 PUSH20 0xFFFFFFFFFFFFFFFFFFFFFFFFFFFFFFFFFFFFFFFF MUL NOT AND SWAP1 DUP4 PUSH20 0xFFFFFFFFFFFFFFFFFFFFFFFFFFFFFFFFFFFFFFFF AND MUL OR SWAP1 SSTORE POP PUSH2 0x6A6 DUP1 PUSH2 0x5B PUSH0 CODECOPY PUSH0 RETURN INVALID PUSH1 0x80 PUSH1 0x40 MSTORE PUSH1 0x4 CALLDATASIZE LT PUSH2 0x3E JUMPI PUSH0 CALLDATALOAD PUSH1 0xE0 SHR DUP1 PUSH4 0x3CCFD60B EQ PUSH2 0x42 JUMPI DUP1 PUSH4 0x410A1D32 EQ PUSH2 0x58 JUMPI DUP1 PUSH4 0x8DA5CB5B EQ PUSH2 0x94 JUMPI DUP1 PUSH4 0xED88C68E EQ PUSH2 0xBE JUMPI JUMPDEST PUSH0 PUSH0 REVERT JUMPDEST CALLVALUE DUP1 ISZERO PUSH2 0x4D JUMPI PUSH0 PUSH0 REVERT JUMPDEST POP PUSH2 0x56 PUSH2 0xC8 JUMP JUMPDEST STOP JUMPDEST CALLVALUE DUP1 ISZERO PUSH2 0x63 JUMPI PUSH0 PUSH0 REVERT JUMPDEST POP PUSH2 0x7E PUSH1 0x4 DUP1 CALLDATASIZE SUB DUP2 ADD SWAP1 PUSH2 0x79 SWAP2 SWAP1 PUSH2 0x41E JUMP JUMPDEST PUSH2 0x271 JUMP JUMPDEST PUSH1 0x40 MLOAD PUSH2 0x8B SWAP2 SWAP1 PUSH2 0x461 JUMP JUMPDEST PUSH1 0x40 MLOAD DUP1 SWAP2 SUB SWAP1 RETURN JUMPDEST CALLVALUE DUP1 ISZERO PUSH2 0x9F JUMPI PUSH0 PUSH0 REVERT JUMPDEST POP PUSH2 0xA8 PUSH2 0x2B7 JUMP JUMPDEST PUSH1 0x40 MLOAD PUSH2 0xB5 SWAP2 SWAP1 PUSH2 0x489 JUMP JUMPDEST PUSH1 0x40 MLOAD DUP1 SWAP2 SUB SWAP1 RETURN JUMPDEST PUSH2 0xC6 PUSH2 0x2DB JUMP JUMPDEST STOP JUMPDEST PUSH0 PUSH0 SWAP1 SLOAD SWAP1 PUSH2 0x100 EXP SWAP1 DIV PUSH20 0xFFFFFFFFFFFFFFFFFFFFFFFFFFFFFFFFFFFFFFFF AND PUSH20 0xFFFFFFFFFFFFFFFFFFFFFFFFFFFFFFFFFFFFFFFF AND CALLER PUSH20 0xFFFFFFFFFFFFFFFFFFFFFFFFFFFFFFFFFFFFFFFF AND EQ PUSH2 0x156 JUMPI PUSH1 0x40 MLOAD PUSH32 0x8C379A000000000000000000000000000000000000000000000000000000000 DUP2 MSTORE PUSH1 0x4 ADD PUSH2 0x14D SWAP1 PUSH2 0x4FC JUMP JUMPDEST PUSH1 0x40 MLOAD DUP1 SWAP2 SUB SWAP1 REVERT JUMPDEST PUSH0 SELFBALANCE SWAP1 POP PUSH0 DUP2 GT PUSH2 0x19C JUMPI PUSH1 0x40 MLOAD PUSH32 0x8C379A000000000000000000000000000000000000000000000000000000000 DUP2 MSTORE PUSH1 0x4 ADD PUSH2 0x193 SWAP1 PUSH2 0x564 JUMP JUMPDEST PUSH1 0x40 MLOAD DUP1 SWAP2 SUB SWAP1 REVERT JUMPDEST PUSH0 PUSH0 SWAP1 SLOAD SWAP1 PUSH2 0x100 EXP SWAP1 DIV PUSH20 0xFFFFFFFFFFFFFFFFFFFFFFFFFFFFFFFFFFFFFFFF AND PUSH20 0xFFFFFFFFFFFFFFFFFFFFFFFFFFFFFFFFFFFFFFFF AND PUSH2 0x8FC DUP3 SWAP1 DUP2 ISZERO MUL SWAP1 PUSH1 0x40 MLOAD PUSH0 PUSH1 0x40 MLOAD DUP1 DUP4 SUB DUP2 DUP6 DUP9 DUP9 CALL SWAP4 POP POP POP POP ISZERO DUP1 ISZERO PUSH2 0x1FF JUMPI RETURNDATASIZE PUSH0 PUSH0 RETURNDATACOPY RETURNDATASIZE PUSH0 REVERT JUMPDEST POP PUSH0 PUSH0 SWAP1 SLOAD SWAP1 PUSH2 0x100 EXP SWAP1 DIV PUSH20 0xFFFFFFFFFFFFFFFFFFFFFFFFFFFFFFFFFFFFFFFF AND PUSH20 0xFFFFFFFFFFFFFFFFFFFFFFFFFFFFFFFFFFFFFFFF AND PUSH32 0x7084F5476618D8E60B11EF0D7D3F06914655ADB8793E28FF7F018D4C76D505D5 DUP3 PUSH1 0x40 MLOAD PUSH2 0x266 SWAP2 SWAP1 PUSH2 0x461 JUMP JUMPDEST PUSH1 0x40 MLOAD DUP1 SWAP2 SUB SWAP1 LOG2 POP JUMP JUMPDEST PUSH0 PUSH1 0x1 PUSH0 DUP4 PUSH20 0xFFFFFFFFFFFFFFFFFFFFFFFFFFFFFFFFFFFFFFFF AND PUSH20 0xFFFFFFFFFFFFFFFFFFFFFFFFFFFFFFFFFFFFFFFF AND DUP2 MSTORE PUSH1 0x20 ADD SWAP1 DUP2 MSTORE PUSH1 0x20 ADD PUSH0 KECCAK256 SLOAD SWAP1 POP SWAP2 SWAP1 POP JUMP JUMPDEST PUSH0 PUSH0 SWAP1 SLOAD SWAP1 PUSH2 0x100 EXP SWAP1 DIV PUSH20 0xFFFFFFFFFFFFFFFFFFFFFFFFFFFFFFFFFFFFFFFF AND DUP2 JUMP JUMPDEST PUSH0 CALLVALUE GT PUSH2 0x31D JUMPI PUSH1 0x40 MLOAD PUSH32 0x8C379A000000000000000000000000000000000000000000000000000000000 DUP2 MSTORE PUSH1 0x4 ADD PUSH2 0x314 SWAP1 PUSH2 0x5F2 JUMP JUMPDEST PUSH1 0x40 MLOAD DUP1 SWAP2 SUB SWAP1 REVERT JUMPDEST CALLVALUE PUSH1 0x1 PUSH0 CALLER PUSH20 0xFFFFFFFFFFFFFFFFFFFFFFFFFFFFFFFFFFFFFFFF AND PUSH20 0xFFFFFFFFFFFFFFFFFFFFFFFFFFFFFFFFFFFFFFFF AND DUP2 MSTORE PUSH1 0x20 ADD SWAP1 DUP2 MSTORE PUSH1 0x20 ADD PUSH0 KECCAK256 PUSH0 DUP3 DUP3 SLOAD PUSH2 0x369 SWAP2 SWAP1 PUSH2 0x63D JUMP JUMPDEST SWAP3 POP POP DUP2 SWAP1 SSTORE POP CALLER PUSH20 0xFFFFFFFFFFFFFFFFFFFFFFFFFFFFFFFFFFFFFFFF AND PUSH32 0x2A01595CDDF097C90216094025DB714DA3F4E5BD8877B56BA86A24ECEAD8E543 CALLVALUE PUSH1 0x40 MLOAD PUSH2 0x3B6 SWAP2 SWAP1 PUSH2 0x461 JUMP JUMPDEST PUSH1 0x40 MLOAD DUP1 SWAP2 SUB SWAP1 LOG2 JUMP JUMPDEST PUSH0 PUSH0 REVERT JUMPDEST PUSH0 PUSH20 0xFFFFFFFFFFFFFFFFFFFFFFFFFFFFFFFFFFFFFFFF DUP3 AND SWAP1 POP SWAP2 SWAP1 POP JUMP JUMPDEST PUSH0 PUSH2 0x3ED DUP3 PUSH2 0x3C4 JUMP JUMPDEST SWAP1 POP SWAP2 SWAP1 POP JUMP JUMPDEST PUSH2 0x3FD DUP2 PUSH2 0x3E3 JUMP JUMPDEST DUP2 EQ PUSH2 0x407 JUMPI PUSH0 PUSH0 REVERT JUMPDEST POP JUMP JUMPDEST PUSH0 DUP2 CALLDATALOAD SWAP1 POP PUSH2 0x418 DUP2 PUSH2 0x3F4 JUMP JUMPDEST SWAP3 SWAP2 POP POP JUMP JUMPDEST PUSH0 PUSH1 0x20 DUP3 DUP5 SUB SLT ISZERO PUSH2 0x433 JUMPI PUSH2 0x432 PUSH2 0x3C0 JUMP JUMPDEST JUMPDEST PUSH0 PUSH2 0x440 DUP5 DUP3 DUP6 ADD PUSH2 0x40A JUMP JUMPDEST SWAP2 POP POP SWAP3 SWAP2 POP POP JUMP JUMPDEST PUSH0 DUP2 SWAP1 POP SWAP2 SWAP1 POP JUMP JUMPDEST PUSH2 0x45B DUP2 PUSH2 0x449 JUMP JUMPDEST DUP3 MSTORE POP POP JUMP JUMPDEST PUSH0 PUSH1 0x20 DUP3 ADD SWAP1 POP PUSH2 0x474 PUSH0 DUP4 ADD DUP5 PUSH2 0x452 JUMP JUMPDEST SWAP3 SWAP2 POP POP JUMP JUMPDEST PUSH2 0x483 DUP2 PUSH2 0x3E3 JUMP JUMPDEST DUP3 MSTORE POP POP JUMP JUMPDEST PUSH0 PUSH1 0x20 DUP3 ADD SWAP1 POP PUSH2 0x49C PUSH0 DUP4 ADD DUP5 PUSH2 0x47A JUMP JUMPDEST SWAP3 SWAP2 POP POP JUMP JUMPDEST PUSH0 DUP3 DUP3 MSTORE PUSH1 0x20 DUP3 ADD SWAP1 POP SWAP3 SWAP2 POP POP JUMP JUMPDEST PUSH32 0x6E6F74206F776E65720000000000000000000000000000000000000000000000 PUSH0 DUP3 ADD MSTORE POP JUMP JUMPDEST PUSH0 PUSH2 0x4E6 PUSH1 0x9 DUP4 PUSH2 0x4A2 JUMP JUMPDEST SWAP2 POP PUSH2 0x4F1 DUP3 PUSH2 0x4B2 JUMP JUMPDEST PUSH1 0x20 DUP3 ADD SWAP1 POP SWAP2 SWAP1 POP JUMP JUMPDEST PUSH0 PUSH1 0x20 DUP3 ADD SWAP1 POP DUP2 DUP2 SUB PUSH0 DUP4 ADD MSTORE PUSH2 0x513 DUP2 PUSH2 0x4DA JUMP JUMPDEST SWAP1 POP SWAP2 SWAP1 POP JUMP JUMPDEST PUSH32 0x6E6F20657468206E65656420746F2062652077697468647261776E0000000000 PUSH0 DUP3 ADD MSTORE POP JUMP JUMPDEST PUSH0 PUSH2 0x54E PUSH1 0x1B DUP4 PUSH2 0x4A2 JUMP JUMPDEST SWAP2 POP PUSH2 0x559 DUP3 PUSH2 0x51A JUMP JUMPDEST PUSH1 0x20 DUP3 ADD SWAP1 POP SWAP2 SWAP1 POP JUMP JUMPDEST PUSH0 PUSH1 0x20 DUP3 ADD SWAP1 POP DUP2 DUP2 SUB PUSH0 DUP4 ADD MSTORE PUSH2 0x57B DUP2 PUSH2 0x542 JUMP JUMPDEST SWAP1 POP SWAP2 SWAP1 POP JUMP JUMPDEST PUSH32 0x7468657265206D75737420626520736F6D657468696E6720626520646F6E6174 PUSH0 DUP3 ADD MSTORE PUSH32 0x6564000000000000000000000000000000000000000000000000000000000000 PUSH1 0x20 DUP3 ADD MSTORE POP JUMP JUMPDEST PUSH0 PUSH2 0x5DC PUSH1 0x22 DUP4 PUSH2 0x4A2 JUMP JUMPDEST SWAP2 POP PUSH2 0x5E7 DUP3 PUSH2 0x582 JUMP JUMPDEST PUSH1 0x40 DUP3 ADD SWAP1 POP SWAP2 SWAP1 POP JUMP JUMPDEST PUSH0 PUSH1 0x20 DUP3 ADD SWAP1 POP DUP2 DUP2 SUB PUSH0 DUP4 ADD MSTORE PUSH2 0x609 DUP2 PUSH2 0x5D0 JUMP JUMPDEST SWAP1 POP SWAP2 SWAP1 POP JUMP JUMPDEST PUSH32 0x4E487B7100000000000000000000000000000000000000000000000000000000 PUSH0 MSTORE PUSH1 0x11 PUSH1 0x4 MSTORE PUSH1 0x24 PUSH0 REVERT JUMPDEST PUSH0 PUSH2 0x647 DUP3 PUSH2 0x449 JUMP JUMPDEST SWAP2 POP PUSH2 0x652 DUP4 PUSH2 0x449 JUMP JUMPDEST SWAP3 POP DUP3 DUP3 ADD SWAP1 POP DUP1 DUP3 GT ISZERO PUSH2 0x66A JUMPI PUSH2 0x669 PUSH2 0x610 JUMP JUMPDEST JUMPDEST SWAP3 SWAP2 POP POP JUMP INVALID LOG2 PUSH5 0x6970667358 0x22 SLT KECCAK256 0x1F PUSH29 0xCA9782C1715B88C6A50A7D745316E2A3368A229A086A69F79E6000E23F TIMESTAMP PUSH5 0x736F6C6343 STOP ADDMOD 0x1E STOP CALLER "
				},
				"gasEstimates": {
					"creation": {
						"codeDepositCost": "340400",
						"executionCost": "24642",
						"totalCost": "365042"
					},
					"external": {
						"donate()": "infinite",
						"getDonation(address)": "2829",
						"owner()": "2529",
						"withdraw()": "infinite"
					}
				},
				"methodIdentifiers": {
					"donate()": "ed88c68e",
					"getDonation(address)": "410a1d32",
					"owner()": "8da5cb5b",
					"withdraw()": "3ccfd60b"
				}
			},
			"storageLayout": {
				"storage": [
					{
						"astId": 3,
						"contract": "contracts/BeggingContract.sol:BeggingContract",
						"label": "owner",
						"offset": 0,
						"slot": "0",
						"type": "t_address"
					},
					{
						"astId": 7,
						"contract": "contracts/BeggingContract.sol:BeggingContract",
						"label": "amountMapping",
						"offset": 0,
						"slot": "1",
						"type": "t_mapping(t_address,t_uint256)"
					}
				],
				"types": {
					"t_address": {
						"encoding": "inplace",
						"label": "address",
						"numberOfBytes": "20"
					},
					"t_mapping(t_address,t_uint256)": {
						"encoding": "mapping",
						"key": "t_address",
						"label": "mapping(address => uint256)",
						"numberOfBytes": "32",
						"value": "t_uint256"
					},
					"t_uint256": {
						"encoding": "inplace",
						"label": "uint256",
						"numberOfBytes": "32"
					}
				}
			},
			"userdoc": {
				"kind": "user",
				"methods": {},
				"version": 1
			}
		}
	}
}